:020000040000fa
:080000000002040000000000f2
:020000040000fa
:040008008a05000065
:020000040000fa
:04000c005803000095
:020000040000fa
:040010009a0300004f
:020000040000fa
:04001400780300006d
:020000040000fa
:04001800ba03000027
:020000040000fa
:04001c008a05000051
:020000040000fa
:040020008a0500004d
:020000040000fa
:040024008a05000049
:020000040000fa
:040028008a05000045
:020000040000fa
:04002c008a05000041
:020000040000fa
:040030008a0500003d
:020000040000fa
:040034008a05000039
:020000040000fa
:040038008a05000035
:020000040000fa
:04003c008a05000031
:020000040000fa
:040040008a0500002d
:020000040000fa
:040044008a05000029
:020000040000fa
:040048008a05000025
:020000040000fa
:04004c008a05000021
:020000040000fa
:040050008a0500001d
:020000040000fa
:04005400360400006e
:020000040000fa
:04005800da030000c7
:020000040000fa
:04005c008a05000011
:020000040000fa
:040060008a0500000d
:020000040000fa
:040064008a05000009
:020000040000fa
:040068008a05000005
:020000040000fa
:04006c008a05000001
:020000040000fa
:040070008a050000fd
:020000040000fa
:040074008a050000f9
:020000040000fa
:040078008a050000f5
:020000040000fa
:04007c008a050000f1
:020000040000fa
:040080008a050000ed
:020000040000fa
:040084008a050000e9
:020000040000fa
:040088008a050000e5
:020000040000fa
:04008c008a050000e1
:020000040000fa
:040090008a050000dd
:020000040000fa
:040094008a050000d9
:020000040000fa
:040098008a050000d5
:020000040000fa
:04009c008a050000d1
:020000040000fa
:0400a0000e05000049
:020000040000fa
:0400a400b2040000a2
:020000040000fa
:0400a8008a050000c5
:020000040000fa
:0400ac008a050000c1
:020000040000fa
:0400b0008a050000bd
:020000040000fa
:0400b4008a050000b9
:020000040000fa
:0400b8008a050000b5
:020000040000fa
:0400bc008a050000b1
:020000040000fa
:0400c0008a050000ad
:020000040000fa
:0400c4008a050000a9
:020000040000fa
:0400c8008a050000a5
:020000040000fa
:0400cc008a050000a1
:020000040000fa
:0400d0008a0500009d
:020000040000fa
:0400d4008a05000099
:020000040000fa
:0400d8008a05000095
:020000040000fa
:0400dc008a05000091
:020000040000fa
:0400e0008a0500008d
:020000040000fa
:0400e4008a05000089
:020000040000fa
:0400e8008a05000085
:020000040000fa
:0400ec008a05000081
:020000040000fa
:0400f0008a0500007d
:020000040000fa
:0400f4008a05000079
:020000040000fa
:0400f8008a05000075
:020000040000fa
:0400fc008a05000071
:020000040000fa
:040100008a0500006c
:020000040000fa
:040104008a05000068
:020000040000fa
:040108008a05000064
:020000040000fa
:04010c008a05000060
:020000040000fa
:040110008a0500005c
:020000040000fa
:040114008a05000058
:020000040000fa
:040118008a05000054
:020000040000fa
:04011c008a05000050
:020000040000fa
:040120008a0500004c
:020000040000fa
:040124008a05000048
:020000040000fa
:040128008a05000044
:020000040000fa
:04012c009c0400002f
:020000040000fa
:040130007405000052
:020000040000fa
:040134008a05000038
:020000040000fa
:040138008a05000034
:020000040000fa
:04013c008a05000030
:020000040000fa
:040140008a0500002c
:020000040000fa
:040144008a05000028
:020000040000fa
:040148008a05000024
:020000040000fa
:04014c008a05000020
:020000040000fa
:040150008a0500001c
:020000040000fa
:040154008a05000018
:020000040000fa
:040158008a05000014
:020000040000fa
:04015c008a05000010
:020000040000fa
:040160008a0500000c
:020000040000fa
:040164008a05000008
:020000040000fa
:040168008a05000004
:020000040000fa
:04016c008a05000000
:020000040000fa
:040170008a050000fc
:020000040000fa
:040174008a050000f8
:020000040000fa
:040178008a050000f4
:020000040000fa
:04017c008a050000f0
:020000040000fa
:040180008a050000ec
:020000040000fa
:040184008a050000e8
:020000040000fa
:040188008a050000e4
:020000040000fa
:04018c008a050000e0
:020000040000fa
:040190008a050000dc
:020000040000fa
:040194008a050000d8
:020000040000fa
:040198008a050000d4
:020000040000fa
:04019c008a050000d0
:020000040000fa
:0401a0008a050000cc
:020000040000fa
:0401a4008a050000c8
:020000040000fa
:0401a8008a050000c4
:020000040000fa
:0401ac008a050000c0
:020000040000fa
:0401b0008a050000bc
:020000040000fa
:0401b4008a050000b8
:020000040000fa
:0401b8008a050000b4
:020000040000fa
:0401bc008a050000b0
:020000040000fa
:0401c0008a050000ac
:020000040000fa
:0401c4008a050000a8
:020000040000fa
:0401c8008a050000a4
:020000040000fa
:0401cc008a050000a0
:020000040000fa
:0401d0008a0500009c
:020000040000fa
:0401d4008a05000098
:020000040000fa
:0401d8008a05000094
:020000040000fa
:0401dc008a05000090
:020000040000fa
:0401e0008a0500008c
:020000040000fa
:0401e4008a05000088
:020000040000fa
:0401e8008a05000084
:020000040000fa
:0401ec008a05000080
:020000040000fa
:0401f0008a0500007c
:020000040000fa
:0401f4008a05000078
:020000040000fa
:0401f8008a05000074
:020000040000fa
:0401fc008a05000070
:020000040000fa
:040208008a05000063
:020000040000fa
:04020c005803000093
:020000040000fa
:040210009a0300004d
:020000040000fa
:04021400780300006b
:020000040000fa
:04021800ba03000025
:020000040000fa
:04021c008a0500004f
:020000040000fa
:040220008a0500004b
:020000040000fa
:040224008a05000047
:020000040000fa
:040228008a05000043
:020000040000fa
:04022c008a0500003f
:020000040000fa
:040230008a0500003b
:020000040000fa
:040234008a05000037
:020000040000fa
:040238008a05000033
:020000040000fa
:04023c008a0500002f
:020000040000fa
:040240008a0500002b
:020000040000fa
:040244008a05000027
:020000040000fa
:040248008a05000023
:020000040000fa
:04024c008a0500001f
:020000040000fa
:040250008a0500001b
:020000040000fa
:04025400360400006c
:020000040000fa
:04025800da030000c5
:020000040000fa
:04025c008a0500000f
:020000040000fa
:040260008a0500000b
:020000040000fa
:040264008a05000007
:020000040000fa
:040268008a05000003
:020000040000fa
:04026c008a050000ff
:020000040000fa
:040270008a050000fb
:020000040000fa
:040274008a050000f7
:020000040000fa
:040278008a050000f3
:020000040000fa
:04027c008a050000ef
:020000040000fa
:040280008a050000eb
:020000040000fa
:040284008a050000e7
:020000040000fa
:040288008a050000e3
:020000040000fa
:04028c008a050000df
:020000040000fa
:040290008a050000db
:020000040000fa
:040294008a050000d7
:020000040000fa
:040298008a050000d3
:020000040000fa
:04029c008a050000cf
:020000040000fa
:0402a0000e05000047
:020000040000fa
:0402a400b2040000a0
:020000040000fa
:0402a8008a050000c3
:020000040000fa
:0402ac008a050000bf
:020000040000fa
:0402b0008a050000bb
:020000040000fa
:0402b4008a050000b7
:020000040000fa
:0402b8008a050000b3
:020000040000fa
:0402bc008a050000af
:020000040000fa
:0402c0008a050000ab
:020000040000fa
:0402c4008a050000a7
:020000040000fa
:0402c8008a050000a3
:020000040000fa
:0402cc008a0500009f
:020000040000fa
:0402d0008a0500009b
:020000040000fa
:0402d4008a05000097
:020000040000fa
:0402d8008a05000093
:020000040000fa
:0402dc008a0500008f
:020000040000fa
:0402e0008a0500008b
:020000040000fa
:0402e4008a05000087
:020000040000fa
:0402e8008a05000083
:020000040000fa
:0402ec008a0500007f
:020000040000fa
:0402f0008a0500007b
:020000040000fa
:0402f4008a05000077
:020000040000fa
:0402f8008a05000073
:020000040000fa
:0402fc008a0500006f
:020000040000fa
:040300008a0500006a
:020000040000fa
:040304008a05000066
:020000040000fa
:040308008a05000062
:020000040000fa
:04030c008a0500005e
:020000040000fa
:040310008a0500005a
:020000040000fa
:040314008a05000056
:020000040000fa
:040318008a05000052
:020000040000fa
:04031c008a0500004e
:020000040000fa
:040320008a0500004a
:020000040000fa
:040324008a05000046
:020000040000fa
:040328008a05000042
:020000040000fa
:04032c009c0400002d
:020000040000fa
:040330007405000050
:020000040000fa
:040334008a05000036
:020000040000fa
:040338008a05000032
:020000040000fa
:04033c008a0500002e
:020000040000fa
:040340008a0500002a
:020000040000fa
:040344008a05000026
:020000040000fa
:040348008a05000022
:020000040000fa
:04034c008a0500001e
:020000040000fa
:040350008a0500001a
:020000040000fa
:040354008a05000016
:020000040000fa
:040358008a05000012
:020000040000fa
:04035c008a0500000e
:020000040000fa
:040360008a0500000a
:020000040000fa
:040364008a05000006
:020000040000fa
:040368008a05000002
:020000040000fa
:04036c008a050000fe
:020000040000fa
:040370008a050000fa
:020000040000fa
:040374008a050000f6
:020000040000fa
:040378008a050000f2
:020000040000fa
:04037c008a050000ee
:020000040000fa
:040380008a050000ea
:020000040000fa
:040384008a050000e6
:020000040000fa
:040388008a050000e2
:020000040000fa
:04038c008a050000de
:020000040000fa
:040390008a050000da
:020000040000fa
:040394008a050000d6
:020000040000fa
:040398008a050000d2
:020000040000fa
:04039c008a050000ce
:020000040000fa
:0403a0008a050000ca
:020000040000fa
:0403a4008a050000c6
:020000040000fa
:0403a8008a050000c2
:020000040000fa
:0403ac008a050000be
:020000040000fa
:0403b0008a050000ba
:020000040000fa
:0403b4008a050000b6
:020000040000fa
:0403b8008a050000b2
:020000040000fa
:0403bc008a050000ae
:020000040000fa
:0403c0008a050000aa
:020000040000fa
:0403c4008a050000a6
:020000040000fa
:0403c8008a050000a2
:020000040000fa
:0403cc008a0500009e
:020000040000fa
:0403d0008a0500009a
:020000040000fa
:0403d4008a05000096
:020000040000fa
:0403d8008a05000092
:020000040000fa
:0403dc008a0500008e
:020000040000fa
:0403e0008a0500008a
:020000040000fa
:0403e4008a05000086
:020000040000fa
:0403e8008a05000082
:020000040000fa
:0403ec008a0500007e
:020000040000fa
:0403f0008a0500007a
:020000040000fa
:0403f4008a05000076
:020000040000fa
:0403f8008a05000072
:020000040000fa
:0403fc008a0500006e
:020000040000fa
:10040000afc121000e7f22000e0188000000000015
:10041000000020000000e000020032000001200087
:1004200020028800140007000b0207000000e00013
:1004300003003a0080cd25000100200002003700b3
:100440000000200001002000810f70000100320038
:1004500014000700000020000000e000020032004d
:100460000000020000000000f46402000000000030
:100470000040da000000fe004440a900806820002f
:100480000000e000030032000020200090018800fe
:100490004440a800000006008a1f78008b1f7800e7
:1004a00000000600a1028800800478000000eb0034
:1004b0001f003700e284440054a0b4009905ba003c
:1004c000e284440054a0b4009906ba00e2844400d7
:1004d00054a0b4000006eb00476fde00fd07b20039
:1004e000ae018800636ce10003003a00eaff0700f8
:1004f0000000eb000e003700606ce10008003a00dd
:10050000004deb000a05e800020039003420ec0041
:100510000af0a0008b05e900f9ff3e000400370057
:100520006168e100010032000086eb000b0007006b
:1005300019c7ba001905ba000e04e00003003a001a
:100540000a00e000dbff3a0000000600fe07b200f0
:10055000ae0288008a047800f5ff37000cd0a300b3
:10056000e20f4d001c00390089027800354dba00b9
:100570000a05e800020039003420ec000af0a0006f
:100580008b05e9000f003200254dba000a05e8008e
:10059000020039003420ec000af0a0008b05e900cd
:1005a000080032000c00e0000600320015cdba0051
:1005b0000a05e800020039003420ec000af0a0002f
:1005c0008b05e9008984e80054a0b4000b00e0002a
:1005d000e2ff3a00000006009902ba00055d7800cb
:1005e0008b05e900f7ff3200c82ade00055d7800c0
:1005f0008b05e900f3ff32000c00e000f1ff320050
:1006000019ddba00eeff37008a6004000000000028
:10061000d065040000000000e86004000000000055
:1006200002610400000000003461040000000000ca
:1006300062610400000000009261040000000000fc
:100640009e61040000000000c4610400000000007e
:10065000a861040000000000da650400000000004a
:100660008454040000000000a254040000000000b4
:10067000a057040000000000be5704000000000066
:10068000be06040000000000d806040000000000c0
:100690000607040000000000380b04000000000002
:1006a00082130400000000000000040000000000ad
:1006b0003600f800809fbe00829fbe00849fbe006f
:1006c000869fbe000000fa008020a9000000eb0019
:1006d0005a3107000080fa004f03be004f02be00ef
:1006e0004f01be004f00be003600f900004006007a
:1006f0003600f800809fbe00829fbe00849fbe002f
:10070000869fbe000000fa00513107008040a9001a
:1007100010002000493107000080fa004f03be009e
:100720004f02be004f01be004f00be003600f90070
:10073000004006003600f800809fbe00829fbe0089
:10074000849fbe00869fbe000000fa008060a90062
:1007500020002000393107000080fa004f03be005e
:100760004f02be004f01be004f00be003600f90030
:10077000004006003600f800809fbe00829fbe0049
:10078000849fbe00869fbe000000fa008080a90002
:1007900030002000293107000080fa004f03be001e
:1007a0004f02be004f01be004f00be003600f900f0
:1007b000004006003600f800809fbe00829fbe0009
:1007c000849fbe00869fbe000000fa00e0408000cb
:1007d00000000100c1408000b0408000808f5000c8
:1007e00002003a009580a900190037008580a90011
:1007f00010003700c0408000904078008180fb00ee
:10080000212888000000e800c0408800c140800026
:1008100050bd2100808f500002003a00c0bc210072
:10082000c0408800c1408000b0408000808f5000f0
:1008300006003200112880000020200000806000a7
:100840000000e000ebff3200010037000000000074
:100850000080fa004f03be004f02be004f01be00f1
:100860004f00be003600f900004006003600f800d8
:10087000809fbe00829fbe00849fbe00869fbe00f8
:100880000000fa00f0408000000001008560a9002f
:100890001e003700904080003128800081407800a1
:1008a0000148780091408000d0bd2100808f500029
:1008b00009003200904080008000e800a0408000e5
:1008c000808f500004003200904080000000e8005b
:1008d000904088000d00370091408000d0bd21007d
:1008e000808f500007003a00a140800050bd2100d9
:1008f000808f50000300320050bd210090408800de
:100900000200370010c0b3001ae8b70010288000ba
:10091000610060000000e000deff3a000080fa00a5
:100920004f03be004f02be004f01be004f00be008d
:100930003600f90000400600801f78000000fa0031
:1009400010288000620060000000e000010032001a
:100950000225a9008c20a9000080fa004f00780031
:10096000004006003600f800809fbe00829fbe0057
:10097000849fbe00869fbe000000fa0050418000a8
:10098000000001003141800020418000808f500034
:1009900002003a0097e0a9001900370087e0a9009b
:1009a0001000370030418000904078008180fb00cb
:1009b000d12888000000e8003041880031418000e3
:1009c00070be2100808f500002003a00e0bd21007f
:1009d000304188003141800020418000808f5000ec
:1009e00006003200c1288000002020000080600046
:1009f0000000e000ebff32000100370000000000c3
:100a00000080fa004f03be004f02be004f01be003f
:100a10004f00be003600f900004006003600f80026
:100a2000809fbe00829fbe00849fbe00869fbe0046
:100a30000000fa00604180000000010087c0a900aa
:100a40001e00370000418000e128800081407800ce
:100a50000148780001418000f0be2100808f5000e5
:100a600009003200004180008000e8001041800051
:100a7000808f500004003200004180000000e80038
:100a8000004188000d00370001418000f0be2100c8
:100a9000808f500007003a001141800070be210095
:100aa000808f50000300320070be2100004188009a
:100ab0000200370010c0b30028e8b700c02880004b
:100ac000610060000000e000deff3a000080fa00f4
:100ad0004f03be004f02be004f01be004f00be00dc
:100ae0003600f90000400600801f78000000fa0080
:100af000c0288000620060000000e00001003200b9
:100b00001825a9008c40a9000080fa004f00780049
:100b1000004006000040da000000fe000a00fa0073
:100b200011002000b1bf9f00c0bf9f006a80570026
:100b3000a90707004fb897000080fa0000000600e0
:100b40000a00fa0051002000b1bf9f00c0bf9f0003
:100b50006a805700a20707005fb897000080fa007c
:100b600000000600889fbe0080047800c0e080007e
:100b70000000e00004003a000e0007000084eb00d3
:100b80000000e00008003500c8e080000900e00037
:100b90000500320009004400060007000000e000e4
:100ba00001003d000084eb00080078004f04be0007
:100bb00000000600800078000100e00003003a0019
:100bc00000002000c0e08800000005000080eb006d
:100bd00002002000828f500002003e00c1e0880029
:100be0000000eb00000006000a00fa002007980051
:100bf0003107980042079800be0090001107980046
:100c00000000eb00000f78000c003700000000002f
:100c1000852707000004a2000004e000fcff3a0062
:100c20001e009000104078009e0090008100e800b7
:100c3000110798005c2707001e0fe8004e00900087
:100c40009e007800808f5000f0ff39004e00900029
:100c50000080fa0000000600000005006022b800d5
:100c6000060220000000d0008180d2000482d20061
:100c70008582d2000000a0000202520083825a0046
:100c8000030031000202420083824a000000a100fa
:100c90000603e900f3ff3a00000006008001780037
:100ca00002003700b15978000201e9000200e000bb
:100cb000fcff3a00000006008001780002003700c7
:100cc000815978000201e9000200e000fcff3a00cf
:100cd0000000060080007800010178003104e00087
:100ce000fdff3a000000510000000600889fbe0092
:100cf00081047800194478000804e0000e003200f6
:100d000006003700d24178000304e0000a003200f8
:100d1000d1cf1100fbff32000000e8008800fb008b
:100d2000070007000000e00003003200090178001e
:100d300080007800f3ff37004f04be00000006007b
:100d40000001eb00030037000201e8000404e000aa
:100d5000070032006103b8006112b800860142004a
:100d600066427a00814f5200f7ff3a0001003700d7
:100d70008001eb000300780000000600889fbe00a1
:100d8000800478000203be00010478006149b800c5
:100d9000898fd2008381d200080278000600be004d
:100da00011070700088044004f04be000000060041
:100db000881f78000204780008017800b7ff070058
:100dc000080040004f047800000006000000fa0010
:100dd000881f7800000478006a825700bfb9970026
:100de00008017800e16b2000806d200016000700ec
:100df0000000e000020035008040eb000174780044
:100e00004f0478000080fa0000000600889fbe00b2
:100e1000000478000203be00810478000802780014
:100e200089017800120020000600be00f4040700cb
:100e3000890f5000010032000004eb000800780028
:100e40004f04be00000006006800fa00889fbe0044
:100e50008a9fbe0080047800010478008205780033
:100e6000030578008400780000f92f000f0040008f
:100e7000e1040700d98f9f00fb8f9f000000eb006b
:100e8000a09f9f00e88f9f009a84fb000904fb004d
:100e90008904ea00cf4cde0050022000800f54008d
:100ea0000d003200e18f54000b003a000901780078
:100eb0008a0078007f889700df899700030001008f
:100ec000f08f9f000000e000950032002f989700ff
:100ed0000000e800a09f9f00090545005002200087
:100ee000800f5400040032000800e000e6ff3a00e2
:100ef0002f9897008b0037000000eb00809f9f0029
:100f0000f0979f00e0979f00d0979f00c0979f00a9
:100f1000b0979f0007003700c1ba210001005000c0
:100f20000000400001ba210061007800cf989700ce
:100f300001007000c09f9f000a0478000805780037
:100f4000ba4478008900fb00c0ba21007cff07008a
:100f50000000e000f0ff3a00a1c2b30081cf5400ce
:100f60000e003a008f8897000180e900808f9f0073
:100f700010007800b09f9f000000e00005003d00d9
:100f80000000ea00b09f9f004f9897000020a0004b
:100f9000c09f9f000804e80010003700b09f9f002a
:100fa000880078000000eb0005003700f3ff270001
:100fb000830f5000020032006a02b90004004100b1
:100fc00001047800880078003101fb000203b100c1
:100fd000e90f5100f5ff3600b09f9f00e0c2b3005b
:100fe000984f1000020032000080eb00190037001b
:100ff000a0c2b300d84f100007003a008f889700b6
:101000000180e900808f9f0010007800909f9f0072
:101010000804e800100037000000eb00909f9f00dc
:101020008800780005003700f3ff2700830f500089
:10103000020032006a02b900040041000104780095
:10104000880078003101fb000203b100e90f510074
:10105000f5ff3600909f9f00984478008900fb00c0
:1010600080b9210036ff07000000e00002003200d6
:101070000804e800010037008044eb00a97f9f00ce
:1010800080c6b30080cf540006003a0098cf140009
:1010900010003a0066405000a07f9f000804e8005e
:1010a0000c003700c0c6b30080cf540009003a00de
:1010b00098cf140007003a0067404000d84f100056
:1010c00002003a006e4050000100370010c7b30024
:1010d000a07f9f001801fb00c3fb2f008f81410000
:1010e00001f92f008f80400020f92f000f004000f1
:1010f000150007000000e00009003a00c1fb2f00c6
:101100008f80400020f92f000f004000600307008f
:101110000000e000020035000805e8005aff370033
:101120000080eb004f05be004f04be000080fa00b7
:1011300000000600030278008201780001017800b7
:101140006170200040ff3700889fbe008a1f780032
:10115000000478000100780082407800e2c6b30005
:1011600082cf5000c000320015003c006b4151009e
:1011700082cf5000240032000a003c007041510030
:1011800082cf5000f90032006541410082cf50000b
:101190006800320050c2b30080cf500028013a00ee
:1011a0002401370042c6b30082cf50001b0032003a
:1011b0006541410082cf500021013a0017003700fd
:1011c00032c7b30082cf5000e800320007003c0075
:1011d0006441510082cf5000560032000241e800c5
:1011e00082cf500016013a00d200370052c7b30038
:1011f00082cf50004f0032006341410082cf500047
:101200000f013a004b0037009080e9000108780098
:101210002808900091407800070137000869900085
:10122000c4c6b300844f510007003a001002780092
:1012300064015200020878001202be004fabde00cb
:10124000860378001100370014c7b300844f5100a3
:1012500003003200a4c6b300844f510006003a00d8
:101260001002780068015200020878003202be00c5
:101270002203be00050037001081e9000208780053
:1012800012027800cfa2de00612bb900049cbe00e0
:101290000694be000868900082c6b300824f5000da
:1012a0000d00320022c6b300824f500004003a0005
:1012b0000402fb00cfa2de00612bb900080037005a
:1012c00042c7b300824f5000030032006641410024
:1012d000824f500004003a00cfa2de00612bb9001b
:1012e000049cbe000694be003802be002803be0067
:1012f00028089000d2c2b300e00f5200e08f5a00dd
:10130000e00f5b00e08f5b000800350038119000b3
:101310000218a30002003200b2c2b300030037007b
:101320000208a3004c00320002c2b30082717800b0
:101330004700370008699000c4c6b300844f5100cd
:1013400006003a001002780064015200020878009a
:101350001202be006033b8001100370014c7b3009a
:10136000844f510003003200a4c6b300844f5100e3
:1013700006003a0010027800680152000208780066
:101380003202be002203be00050037001081e900d2
:1013900002087800120278008002eb006033b80087
:1013a000049cbe000694be000868900082c6b3008c
:1013b000824f50000d00320022c6b300824f500011
:1013c00004003a000482fb008002eb006033b800a6
:1013d0000800370042c7b300824f500003003200bc
:1013e00066414100824f500004003a008002eb0049
:1013f0006033b800049cbe000694be003810900014
:101400000038a300140032003802be002803be00da
:10141000e00f5200e08f5a00e00f5b00e08f5b00ae
:101420000d00320080c7b30080cf500003003200af
:1014300080c5b30080cf500007003a002808900014
:1014400002c3b300827178000000e8008171780067
:101450000000e800200c98002808900080814100de
:10146000730498003e00370008699000c3c6b300bb
:101470009080e900834f5100220032000a003c00b6
:10148000e4c15100834f51002500320083c1e800c0
:10149000834f510013003200e8c15100834f5100c7
:1014a0001e003a000a00370043c7b300834f5100c3
:1014b0001b003200e6c14100834f5100180032008a
:1014c000e9c15100834f510014003a000500370074
:1014d000010878001100780028649000084878001e
:1014e0005f003700010878001100780018129000a2
:1014f000cfa2de00612bb9000498be000690be00aa
:10150000570037000108780011007800181190008a
:10151000cf91de000288be00510037009080e900c4
:10152000010878001100780018149000080878006d
:101530004b0037009080e900010878001102780024
:10154000cfa2de00612bb900049cbe000694be0051
:1015500028089000808141007304980081c7b3007f
:10156000080078001b0107003d0037000869900063
:1015700051c6b300814f51001a003a0010017800a3
:10158000e4005100010878001100be00000c980032
:10159000110c9800881190000300e00007003d0046
:1015a0008081eb000001eb00380507000001be0060
:1015b0008808900081005100080037000001eb000e
:1015c0003205070000817000030032000809900016
:1015d000820050000100370088109000410c9800f4
:1015e0001f0037009080e90001087800110578009d
:1015f0007a049800881490000900e00004003d007f
:101600000a007800b3fd0700800478000700370067
:10161000090178008000eb000a007800e300070071
:101620000000e000010032008a045000490c9800dc
:101630000b00370028089000817178000600370001
:1016400028089000808141000104e00001003a0078
:1016500051c2b300814978000000e800200c9800d6
:101660000000eb004f0578004f04be0000000600ac
:10167000889fbe00000478000203be008104780049
:101680000802780089017800120020000600be00e0
:10169000db020700890f5000010032000004eb005c
:1016a000080078004f04be00000006006800fa0041
:1016b000889fbe008a9fbe008004780001047800e5
:1016c00082057800030578008400780000f92f0077
:1016d0000f004000c8020700d98f9f00fb8f9f00ba
:1016e0000000eb00a09f9f00e88f9f009a84fb0002
:1016f0000904fb008904ea00cf4cde005002200000
:10170000800f54000d003200e18f54000b003a00ae
:10171000090178008a0078007f889700df899700a8
:1017200003000100f08f9f000000e00095003200f0
:101730002f9897000000e800a09f9f000905450032
:1017400050022000800f5400040032000800e00026
:10175000e6ff3a002f9897008b0037000000eb005f
:10176000809f9f00f0979f00e0979f00d0979f0079
:10177000c0979f00b0979f000700370061bc210011
:101780000100500000004000a1bb21006100780072
:10179000cf98970001007000c09f9f000a04780056
:1017a00008057800ba4478008900fb0060bc21007d
:1017b00063fd07000000e000f0ff3a00a1c2b300a3
:1017c00081cf54000e003a008f8897000180e90015
:1017d000808f9f0010007800b09f9f000000e00005
:1017e00005003d000000ea00b09f9f004f98970061
:1017f0000020a000c09f9f000804e80010003700f0
:10180000b09f9f00880078000000eb0005003700c3
:10181000f3ff2700830f5000020032006a02b90074
:101820000400410001047800880078003101fb00c9
:101830000203b100e90f5100f5ff3600b09f9f0091
:10184000e0c2b300984f1000020032000080eb00ad
:1018500019003700a0c2b300d84f100007003a00ab
:101860008f8897000180e900808f9f00100078002a
:10187000909f9f000804e800100037000000eb0074
:10188000909f9f008800780005003700f3ff270035
:10189000830f5000020032006a02b90004004100c8
:1018a00001047800880078003101fb000203b100d8
:1018b000e90f5100f5ff3600909f9f009844780093
:1018c0008900fb0020bb21001dfd07000000e00097
:1018d000020032000804e800010037008044eb00f9
:1018e000a97f9f0080c6b30080cf540006003a0055
:1018f00098cf140010003a0066405000a07f9f006f
:101900000804e8000c003700c0c6b30080cf5400c4
:1019100009003a0098cf140007003a0067404000e1
:10192000d84f100002003a006e405000010037000e
:1019300010c7b300a07f9f001801fb00c3fb2f005e
:101940008f81410001f92f008f80400020f92f0086
:101950000f004000fcfd07000000e00009003a0015
:10196000c1fb2f008f80400020f92f000f004000a6
:10197000470107000000e000020035000805e8000c
:101980005aff37000080eb004f05be004f04be0039
:101990000080fa000000060003027800820178004f
:1019a0000101780081b3200040ff370003003700b9
:1019b000b0cf1000050032000201e900800178007c
:1019c0000200e000faff3a00000005000300780082
:1019d00000000600fc874700889fbe008a9fbe006b
:1019e0008c9fbe008e1f78000006780080c5b30073
:1019f00080cf50000a0032007740400080cf500076
:101a00000a0032006940400080cf50000b003200d5
:101a100070b6210080bf9f00ae0020000a00370092
:101a200062b5210082bf9f000600370073b6210017
:101a300083bf9f008e0020000300370074b6210092
:101a400084bf9f000e0120003c02be002c03be009c
:101a50000605be000404be0040c6b30080cf50009f
:101a6000030032006540400080cf50000b003a0078
:101a7000e00f5200e08f5a00e00f5b00e08f5b0048
:101a800006003d006000b8006011b800040450007a
:101a9000858458000605590087855900e80f5700ce
:101aa0000400320040002000f00f570038003a00d8
:101ab0000100370030002000e00f5400e08f5c0090
:101ac000e00f5d00e08f5d0004003a008c10900094
:101ad0008d0120000100e000060032008e00e900c8
:101ae000888060008fba9700e5c07800f1ef9f0012
:101af0007d012000800078008100e90005003300ae
:101b00008b05d1000a85d3008984d3000884d300d3
:101b1000f9ff3700089ebe000a96be00120037008b
:101b20008d06e9008e00e900848060000fb99700ff
:101b3000e2c1780082fd2f000f01410003f17e0019
:101b4000800078008100e900050033008783d10020
:101b50000683d3008582d3000482d300f9ff3700c7
:101b6000049ebe000696be003c02be002c03be00d2
:101b7000e00f5200e08f5a00e00f5b00e08f5b0047
:101b80008b0034000d00e000e5ff3c0088003700ca
:101b90000c68900081c6b300814f50000b003200ea
:101ba00006003c000004e00008003200e6c05000df
:101bb000814f50004e003a0004003700c1c6b30008
:101bc000814f50004a003a00210037000800e00031
:101bd00004003a000c1090008d0120000000e0008d
:101be00006003200110009000e84d8000fb99700da
:101bf000e2c07800f1ef9f007d0120001100090094
:101c00000e84d8000a003700110009000e04d80025
:101c10008d06e9000e81b900020454008fb89700c8
:101c200061417c0081fd2f008f80400082f07e00aa
:101c3000000478000800e000020032000d00e0001f
:101c4000f1ff3c00cfc4de00614db9002500370034
:101c5000e00f5400e08f5c0004003a000c1090008c
:101c60008d0120000000e000070032006171b90022
:101c70000800be00af0307008fb99700e34178006a
:101c8000f3ef9f007d0120006171b9000800be00e4
:101c9000f2fb07000b0037006171b9000800be00bd
:101ca000950307008d06e90000f1b9000204540015
:101cb0000fba9700e4427c0084fd2f000f0242001f
:101cc00005f27e000004be00e00f5000e08f5800d7
:101cd000020032000d00e000efff3c004fcdde00bf
:101ce0008a057800089ebe000a96be0030003700c4
:101cf000e00f5400e08f5c00e00f5d00e08f5d00be
:101d000004003a000c1090008d0120000000e0005b
:101d1000090032006172b900612bb9000800be00f1
:101d20000a01be002c0407000fba97006442780035
:101d3000f4ef9f007d0120006172b900612bb900b2
:101d40000800be000a01be001c0407000d00370099
:101d50006172b900612bb9000800be000a01be0023
:101d6000210407008d06e90000f2b90004045400c4
:101d70008fba970065427c0085fd2f008f8242005c
:101d800084f27e00009ebe000296be003c04be00af
:101d90002c05be00e00f5400e08f5c00e00f5d00fa
:101da000e08f5d00020034000d00e000e8ff3c0021
:101db000e80f570010003a003c1090000038a300d4
:101dc0000d003200f78f560006003e0085fd2f0003
:101dd0008f824200e5c07e0000c3b30080cf500078
:101de000050032008d06e90002c3b30081fd2f001b
:101df0008f80400082f07e0078811600420e9800ad
:101e00007c00900083fd2f008f8141008d80410078
:101e1000a2fb07004c0890008c109000810f50002e
:101e200006003d0000805000300e98003c109000ed
:101e30000040a100301698000f0037000100e000bc
:101e40000d003d00bc109000f4806000f08f500049
:101e500009003a002c119000ac089000810051005c
:101e60003c09900082805000008050004240a90050
:101e700001003400300e98004f0778004f06be0076
:101e80004f05be004f04be00cf01b10000000600a8
:101e90000400fa00889fbe008a9fbe008c1f780055
:101ea0000004780001067800a8149000280890002b
:101eb00080845400380890008084540048089000c2
:101ec0008084540058089000808454006808900072
:101ed000808454007808900080845400000222001e
:101ee00090bf9f0000032300a0bf9f003810900008
:101ef0000028a30015003a000900e0001300340098
:101f0000090578008a057800e20f550001003600c7
:101f10002b002000c80190000b017800ee805700d4
:101f20006800900003000100600498000000e000d9
:101f3000aa003200181090000b0040001014980006
:101f40000b0555004240a900eeff3c002809900017
:101f50000200e0000c003400c80190008c00780002
:101f60006800900003000100600498008080eb008e
:101f70000000e0009a0032009810900028089000bd
:101f80000080400010149800380d90000a00e00016
:101f9000110034008a057800e20f55000100360078
:101fa0002b002000c80190000b017800ec80570046
:101fb0006800900003000100600498000000e00049
:101fc00086003200181090000b004000101498009a
:101fd0000b055500edff370008699000c808900018
:101fe00050c6b300804f510008003a000100e000e5
:101ff00015003400580290000809900098099000dc
:102000006800900004000100070037000100e000b4
:102010000d003400c801900001017800f800900024
:102020006800900003000100600498008080eb00cd
:102030000000e0006a00320098109000480890000c
:102040000080400010149800580d90000a00e00035
:10205000110034008a057800e20f550001003600b7
:102060002b002000c80190000b017800ec80570085
:102070006800900003000100600498000000e00088
:1020800056003200181090000b0040001014980009
:102090000b055500edff37000869900068089000b7
:1020a00051c6b300814f51000d003a000000e0001e
:1020b0001c00340078019000c80890000101410024
:1020c0006111b800828fd2008381d2005802900043
:1020d00080007800680090000400010009003700cb
:1020e0000000e0000f00340078019000c808900064
:1020f00081004100c8019000000178006800900054
:1021000003000100600498008080eb000000e00004
:102110003300320098109000680890000080400062
:1021200010149800780d90000a00e00011003400af
:102130008a057800e20f5500010036002b002000d0
:10214000c80190000b017800ec80570068009000f7
:1021500003000100600498000000e0001f0032004e
:10216000181090000b004000101498000b0555004b
:10217000edff3700381090008000eb000028a3002e
:10218000170032000900e00015003400090578004e
:10219000e28f5400010036002a002000c8019000a0
:1021a0000a017800ee8057006800900003000100eb
:1021b000600498000000e000080032001810900051
:1021c0000a004000101498008a8454004240a9007c
:1021d000eeff3c008000eb00010037008080eb0048
:1021e000010078004f0678004f05be004f04be0086
:1021f0000080fa00000006000108780000000600d8
:10220000e6874700889fbe008a9fbe008c9fbe0065
:102210008e1f780082bf9f0004047800029ab900e4
:10222000f4b79f000400e000590032000fb9970096
:102230000200e000570032000006be0004077800ec
:10224000c800900068009000808f500004003900a2
:1022500008007800910007000000e0003b00350016
:1022600000402000180060000a0032008e01780053
:10227000a20020000c00be00040207000005be0002
:1022800000807500070032008c0455008904e800c6
:10229000050037008e0478000a0020000b002000a3
:1022a000010037008e04780048019000680090001b
:1022b00002005000890f50000300310080047800b4
:1022c0000a0020000b0020006111b800828fd200ac
:1022d0008381d200090278000c00be00c201070011
:1022e000090757004800900009004000400498008a
:1022f0000a85750004003200080078002c000700f1
:102300000000e00011003a000e00e0000f00320073
:102310006148b800808fd2008180d2000000780030
:1023200000f0a1008c01d0000001d0000286410025
:102330004220a80081864e004200a9004220ae0043
:102340004200a8000c86d300bdff370000802000ab
:102350001800600002003200080078001400070036
:1023600000c020001800600002003200c801900088
:10237000630498007fb097000e0750000fb99700d4
:10238000110009000287d8008001780001003700a1
:102390008001eb00030078004f0778004f06be0075
:1023a0004f05be004f04be006f00b10000000600e4
:1023b000889fbe00000478000800e0000f003a008b
:1023c0008004eb00090478008800d00060b421008c
:1023d000610078000000e00004003200f4ff070014
:1023e0000000e00001003d008084eb000804e800ec
:1023f000e80f5400f4ff3a002500370000002200e7
:10240000180060008004eb0021003200a804900056
:102410000f00370009015100384090000000fb0018
:1024200089007800f0f907000000e00007003c0098
:10243000280090004004980060049800500c980018
:102440001890a0008084eb001100370080844400c5
:1024500048019000828f5400eeff39002800900060
:10246000400498009800780002c0200002816000bb
:1024700001003a003800900001e8a3000200320099
:102480006004980001003700500c98008004eb00b5
:10249000090078004f04be0000000600889fbe00bf
:1024a0008a1f780000047800c8009000680190003e
:1024b0000000eb00828f50003c00390018007800cb
:1024c0002200290002016000e20f510007003200e3
:1024d000012020000000e000010035000120240060
:1024e000008c70000080eb003000370002002600f6
:1024f00002006000820f500009003a00380090008e
:10250000808f50000600390008007800a8ff0700ff
:10251000800078000080eb000100e00023003a001a
:102520001805780000c020000000650018003a007f
:10253000a80490006002200008004000808f540032
:1025400013003a0000202000ef000700200498004c
:102550000000e00005003a002904980049049800b2
:102560008904e80039049800080037000a60a000d8
:102570000a0c780040049800012020008080400070
:1025800031049800400c9800500c98000c00070093
:1025900028009000500498003800900060049800d3
:1025a00000002600180c70000000eb004f057800ba
:1025b0004f04be00000006002038210061003700f3
:1025c000881f780048c121001804e00003003a0089
:1025d000f9ff070020c0b300004c78004f047800da
:1025e00000000600889fbe00000478000800780004
:1025f0006fff0700800478000004200018006000ce
:1026000002003200280090005a0007000000eb0092
:1026100020049800384090000004e00005003500d8
:102620000000fb003df907000000e000010032005f
:102630008084eb00181090000000e00008003200d9
:102640003ff907000000e000010032008084eb0049
:1026500018109000470007000000eb0010149800cd
:102660000008200018006000150032000001eb0097
:102670006000b80063b421000202d00063027a0057
:10268000880f520005003a00000040008180480099
:10269000008041000008eb000600370061004000a8
:1026a000e08048000201e800e80f5000e08f580089
:1026b000f0ff3a00080078002e0007000e003700f7
:1026c000000c780000c0eb0030449800600220004d
:1026d000080040002004980040049800500498002e
:1026e000400c980060049800500c9800700498000a
:1026f00076004400000c9800090078004f04be00ea
:1027000000000600881f78000004eb006140b8005c
:10271000e2ff2f00f3ff2f000901070042b521005f
:10272000620078000000e00001003200adff070009
:102730000804e800e80f5400f4ff3a004f04780062
:1027400000000600010020000100e0000800320047
:10275000010080000100e000050032008100e90076
:10276000010088008100d0000200800000b17800e4
:10277000000006000000e0002f003200c0017800d9
:10278000e38f51002c0036000308a3002a003a0012
:1027900091e080000100e00002003200810f500053
:1027a000040031001100980090e088001600370006
:1027b00082007800110190000200e0000200320067
:1027c000800f5100faff3900110278008482400026
:1027d000850f500018003900808f520003003a0026
:1027e0008308420001007800070037000200e00083
:1027f0000300320083014000830f51000e003900b6
:102800001200980090009800900090000100e000f5
:102810000900320010014000828f500006003a008b
:1028200002c121000009eb001001780011084100ed
:10283000910090001100980000000600889fbe00e3
:102840000004780081e080000100e0000200320016
:10285000010078000d00370091e0800020c12100c8
:1028600004003700910f5400250036000180e80075
:10287000910090000100e000faff3a0010003700dc
:10288000920f54001e0036000280e800100178000c
:102890000200e000faff3a001101780091e08000a8
:1028a00020c1210004003700910f540014003600ad
:1028b0000180e80091009000828f5000faff3a00fa
:1028c000b9e08000888f540001003100880478004e
:1028d00009007800360007000000e00004003a001c
:1028e000888f5400050032008904d100f5ff3700bd
:1028f000091878009fff0700d2ff37000000eb00a7
:102900004f04be0000000600881f780063044000ea
:102910000800a1008000eb00800f54002100360069
:10292000e30f540001003e0048002000080078003a
:10293000c2ff07008000eb000000e0001900320039
:10294000900078009101780064815100880f510057
:1029500003003100110190000208780007003700e1
:10296000088140000208780091019000130198004e
:10297000100178001109140088087800100178000f
:102980000000eb000200e000040032009201900021
:102990000300e000010032000280e80080e08800cf
:1029a0008180e800010078004f04780000000600f4
:1029b000800078000000eb000100e000050034001a
:1029c0000100780067f80700e10f400001003a00bd
:1029d0000000eb000000060000c0da000000060066
:1029e00000c0da00000006003400f8003200f800f1
:1029f0000203be00820270008502720002f0a6008f
:102a00008301e800a301880000f0a6008100e8002f
:102a1000910188001500b2000c00320010497800c6
:102a20000402e90015003200610141000200390092
:102a30003420ec000200280061004000f7ff39005c
:102a40003220ec0000002800f4ff37001009780065
:102a50000482e900090032006201410002003900ed
:102a60003420ec000200280062004000f7ff39002b
:102a70003220ec0000002800f4ff37003200f9009b
:102a80003400f9000601be00000006000300e0006b
:102a90000700320095018000910188001042780003
:102aa000950188000402fb00820f520011003200e1
:102ab0008301e900950180009101880010427800af
:102ac000950188000404e00008003200000278004c
:102ad0001000b00000026a004260af0000f0a000e9
:102ae0000482d2000180b000e8ff3700000020001f
:102af0000100200000000600839f68000100e00044
:102b000002003d0060001000e08018000300e000bb
:102b100002003d0060011100e08119004ff807003c
:102b20004f00e00002003b0060001000e080180051
:102b30000000060049f807000400be00000006007f
:102b4000020ab900001bb9000200b800810042006f
:102b50008100430000000600889fbe008a9fbe00df
:102b600030044200b0844a0030054b0090854b0091
:102b70006000b1000898be000a90be000440e10069
:102b800005c8e10006d0e10007d8e10002003100ed
:102b9000680040001008e8004f05be004f04be006a
:102ba00000000600889fbe008a9fbe003004be0061
:102bb0002005be000418540005985c0006185d004e
:102bc00007985d00110020000440e10005c8e10005
:102bd00006d0e10007d8e100010039008000eb00d9
:102be000108810004f05be004f04be000000060014
:102bf0001200fa00889fbe008a9fbe008c9fbe0014
:102c0000e0b79f00f1b79f0082bf9f0093bf9f0076
:102c10000605be000404be000000eb00d0b79f0014
:102c2000c0b79f00b0b79f00a0b79f0090b79f00ac
:102c3000000678005fb19700cfb097008201410095
:102c40003fb097000200e00004003d00370007009d
:102c50007e805700c0ff07000300370033000700e5
:102c60007e805700cfff0700dfb697000d00e00021
:102c70000c0035006fb29700ffb297000fbb9700b2
:102c80009fbb970010002000010020006011b800d9
:102c9000000272008182720002037300838373005a
:102ca0001b0007000c06e80001042000810f5600fd
:102cb000e0ff3a000d00e00004003d000802be0005
:102cc0000a03be007e805700a3ff07005fa897009d
:102cd0000000e00005003a001fb29700afb2970075
:102ce0003fb39700cfb39700090007006fb097007c
:102cf000ffb097000fb997009fb997004f06be002d
:102d00004f05be004f04be000080fa000000060020
:102d10000100070000000600a4b79f00b5b79f00a0
:102d2000c6b79f00d7b79f00000006004f09de001e
:102d300082817100b3b79f004f01de0081804000a7
:102d400082807000a1b79f008fb097004f09de000e
:102d5000000040000200700090b79f007fa897001d
:102d60004f01de00818040008280700081b79f00ab
:102d70000d0007004f3ade00000040000400700024
:102d8000f0af9f00080007000402420085824a005d
:102d900006034b0087834b00dfff07000802be00dd
:102da0000a03be00000006002fb29700bfb29700d2
:102db0004fb39700dfb3970000000600881f78002c
:102dc00018002000881f780089ff07008f87e9001e
:102dd0004f04780000000600801feb0084ff07000e
:102de0008f87e90000000600889fbe008a9fbe0012
:102df000e00f5000e08f5800e00f5900e08f5900bd
:102e00000c003d006044b8006055b800000054005c
:102e100081805c0002015d0083815d00180020005c
:102e20001500070008003d00180007000004eb0033
:102e3000050037000004eb000f00070002003d0012
:102e40001200070018002000dcff07000800e00067
:102e5000060032006022b8006033b8000000520063
:102e600081805a0002015b0083815b004f05be0038
:102e70004f04be0000000600e00f5200e08f5a0031
:102e8000e00f5b00e08f5b00000006006044b800cc
:102e90006055b8000402540085825c0006035d00a2
:102ea00087835d0000000600889fbe008a9fbe00e9
:102eb0008c1f7800e00f5000e08f5800e00f5900a1
:102ec000e08f59000d003d006044b8006055b80027
:102ed0000000540081805c0002015d0083815d0080
:102ee0001c0020000820e10009a8e1000ab0e10070
:102ef0000bb8e1000d003d00080037000006eb00b4
:102f0000e00f5200e08f5a00e00f5b00e08f5b00a3
:102f100006003d006044b8006055b800040254004b
:102f200085825c0006035d0087835d00aaff0700c1
:102f30000c00e000060032006022b8006033b800e8
:102f40000000520081805a0002015b0083815b0017
:102f50004f0678004f05be004f04be00000006007b
:020000040000fa
:102f6000c7000000fc000000e9000000e2000000d3
:102f7000e4000000e0000000e5000000e7000000c1
:102f8000ea000000eb000000e8000000ef00000095
:102f9000ee000000ec000000c4000000c5000000ce
:102fa000c9000000e6000000c6000000f4000000b8
:102fb000f6000000f2000000fb000000f900000035
:102fc000ff000000d6000000dc000000a2000000ae
:102fd000a3000000a5000000a7200000920100004f
:102fe000e1000000ed000000f3000000fa00000026
:102ff000f1000000d1000000aa000000ba000000ab
:10300000bf00000010230000ac000000bd00000065
:10301000bc000000a1000000ab000000bb000000ed
:103020009125000092250000932500000225000054
:1030300024250000612500006225000056250000bf
:10304000552500006325000051250000572500008c
:103050005d2500005c2500005b25000010250000b8
:1030600014250000342500002c2500001c2500003c
:10307000002500003c2500005e2500005f250000c3
:103080005a2500005425000069250000662500002f
:1030900060250000502500006c2500006725000019
:1030a0006825000064250000652500005925000002
:1030b0005825000052250000532500006b25000014
:1030c0006a250000182500000c2500008825000056
:1030d000842500008c25000090250000802500003c
:1030e000b1030000df00000093030000c0030000f4
:1030f000a3030000c3030000b5000000c4030000e8
:10310000a603000098030000a9030000b403000018
:103110001e220000c6030000b503000029220000a3
:1031200061220000b100000065220000642200005e
:103130002023000021230000f700000048220000a7
:10314000b000000019220000b70000001a220000a1
:103150007f200000b2000000a0250000a0000000b9
:10316000610000001a030000e000000017030000e7
:10317000f800000007030000ff000000010000004d
:103180007801000000010000300100003201000061
:103190000601000039010000100100004a01000092
:1031a0002e010000790100000601000080010000ee
:1031b0004d00000043020000810100008201000078
:1031c00082010000840100008401000086010000eb
:1031d0008701000087010000890100008a010000ca
:1031e0008b0100008b0100008d0100008e010000aa
:1031f0008f0100009001000091010000910100008a
:103200009301000094010000f60100009601000007
:103210009701000098010000980100003d020000a5
:103220009b0100009c0100009d01000020020000a5
:103230009f010000a0010000a0010000a201000009
:10324000a2010000a4010000a4010000a6010000ea
:10325000a7010000a7010000a9010000aa010000c9
:10326000ab010000ac010000ac010000ae010000a9
:10327000af010000af010000b1010000b201000089
:10328000b3010000b3010000b5010000b50100006a
:10329000b7010000b8010000b8010000ba01000049
:1032a000bb010000bc010000bc010000be01000029
:1032b000f7010000c0010000c1010000c2010000d0
:1032c000c3010000c4010000c5010000c4010000ea
:1032d000c7010000c8010000c7010000ca010000ca
:1032e000cb010000ca010000cd0100001001000068
:1032f000dd010000010000008e010000de01000081
:1033000012010000f301000003000000f1010000c1
:10331000f4010000f4010000f801000028010000a1
:1033200022020000120100003a0200000900000021
:10333000652c00003b0200003b0200003d02000043
:10334000662c00003f020000400200004102000025
:1033500041020000460200000a0100005302000082
:1033600040000000810100008601000055020000bd
:10337000890100008a010000580200008f0100004e
:103380005a020000900100005c0200005d02000093
:103390005e0200005f020000930100006102000075
:1033a0006202000094010000640200006502000057
:1033b000660200006702000097010000960100000d
:1033c0006a020000622c00006c0200006d02000026
:1033d0006e0200009c0100007002000071020000fb
:1033e0009d01000073020000740200009f010000b4
:1033f00076020000770200007802000079020000e7
:103400007a0200007b0200007c020000642c0000b5
:103410007e0200007f020000a60100008102000081
:1034200082020000a9010000840200008502000061
:103430008602000087020000ae0100004402000086
:10344000b1010000b2010000450200008d02000041
:103450008e0200008f020000900200009102000026
:10346000b70100007b03000003000000fd03000023
:10347000fe030000ff030000ac0300000400000096
:103480008603000088030000890300008a0300000f
:10349000b103000011030000c2030000020000009d
:1034a000a3030000a3030000c403000008030000fe
:1034b000cc030000030000008c0300008e0300001a
:1034c0008f030000d803000018010000f203000081
:1034d0000a000000f9030000f3030000f4030000f9
:1034e000f5030000f6030000f7030000f7030000f7
:1034f000f9030000fa030000fa03000030040000a2
:1035000020030000500400001007000060040000c9
:10351000220100008a04000036010000c1040000fe
:103520000e010000cf04000001000000c0040000f4
:10353000d0040000440100006105000026040000e2
:10354000000000007d1d000001000000632c000051
:10355000001e000096010000a01e00005a0100009d
:10356000001f000008060000101f000006060000f3
:10357000201f000008060000301f000008060000a1
:10358000401f000006060000511f00000700000059
:10359000591f0000521f00005b1f0000541f000055
:1035a0005d1f0000561f00005f1f0000601f00002d
:1035b00008060000701f00000e000000ba1f000087
:1035c000bb1f0000c81f0000c91f0000ca1f000069
:1035d000cb1f0000da1f0000db1f0000f81f0000f7
:1035e000f91f0000ea1f0000eb1f0000fa1f000097
:1035f000fb1f0000801f000008060000901f000055
:1036000008060000a01f000008060000b01f000010
:1036100004000000b81f0000b91f0000b21f000026
:10362000bc1f0000cc1f000001000000c31f0000f1
:10363000d01f000002060000e01f0000020600008c
:10364000e51f000001000000ec1f0000f31f000058
:1036500001000000fc1f00004e21000001000000de
:1036600032210000702100001002000084210000bf
:103670000100000083210000d02400001a05000092
:10368000302c00002f040000602c0000020100001c
:10369000672c000006010000752c000002010000ec
:1036a000802c000064010000002d000026080000ae
:1036b00041ff00001a030000000000004154000018
:1036c0002b74000065730000740d00000a000000f8
:1036d000415400002b7700006c6100006e73000005
:1036e000657400006d6f0000646500003d530000cc
:1036f000544100000d0a000000410000542b00005e
:10370000776c0000616e000073650000743d00007e
:10371000676500006e650000726100006c2c00009f
:10372000636f0000756e000074720000795f000026
:10373000636f0000646500002c450000550d00001b
:103740000a000000415400002b7700006c6100006b
:103750006e7000006f6c00006963000079730000f8
:10376000657400003d500000325000002c630000e2
:103770006c690000656e0000742c0000726100002e
:103780006e6400005f620000616300006b6f000008
:10379000666600000d0a000000410000542b000086
:1037a000776c0000616e0000636f00006e6e0000b9
:1037b00065630000743d0000257300002c2c0000a0
:1037c00057500000415f0000575000004132000098
:1037d0002c250000732c00002c2c00000d0a00008a
:1037e00000410000542b00004d7100007474000073
:1037f000446500006c650000746500003d30000009
:103800000d0a000000410000542b00004d71000023
:10381000747400004372000065610000746500006c
:103820003d250000732c000069700000342c00005e
:10383000257300002c250000732c00002c2c0000a8
:103840002c2c00002c2c0000763300005f3100008f
:103850002c3000002c3000000d0a00000041000058
:10386000542b00004d71000074740000436f000081
:103870006e6e000065630000743d0000300d0000b6
:103880000a000000415400002b4d0000717400003c
:1038900074500000756200006c69000073680000dd
:1038a0003d3000002c250000732c0000516f0000fb
:1038b000533000002c3000002c250000642c000048
:1038c000257300000d0a000000410000542b000089
:1038d0006d71000074740000537500006273000085
:1038e0006372000069620000653d0000302c00003a
:1038f000312c0000257300002c5100006f53000094
:10390000302c00000d0a0000000000000103000040
:1039100005070000090e0000101200001416000038
:10392000181c00001e8000009a450000418e000017
:10393000418f0000804500004545000049490000d6
:10394000498e00008f900000929200004f99000075
:103950004f55000055590000999a00009b9c0000ab
:103960009d9e00009f410000494f000055a50000aa
:10397000a5a60000a7a80000a9aa0000abac000003
:10398000adae0000afb00000b1b20000b3b40000b3
:10399000b5b60000b7b80000b9ba0000bbbc000063
:1039a000bdbe0000bfc00000c1c20000c3c4000013
:1039b000c5c60000c7c80000c9ca0000cbcc0000c3
:1039c000cdce0000cfd00000d1d20000d3d4000073
:1039d000d5d60000d7d80000d9da0000dbdc000023
:1039e000ddde0000dfe00000e1e20000e3e40000d3
:1039f000e5e60000e7e80000e9ea0000ebec000083
:103a0000edee0000eff00000f1f20000f3f4000032
:103a1000f5f60000f7f80000f9fa0000fbfc0000e2
:103a2000fdfe0000ff2200002a3a00003c3e00009c
:103a30003f7c00007f0000002b2c00003b3d00007d
:103a40005b5d00000046000041540000004600009d
:103a5000415400003332000000000000000000006c
:103a600095000000000000000000000001000000c0
:103a7000f900000000000000000000000800000045
:103a800087000000040000000000000009000000a2
:103a9000af00000000000000010000000a0000006c
:103aa0001b00000000000000010000000c000000ee
:103ab000c300000001000000000000000d00000035
:103ac000af00000002000000000000001000000035
:103ad000ff000000000000000000000011000000d6
:103ae000ff000000000000000100000012000000c4
:103af000ff000000000000000100000018000000ae
:103b0000ff0000000000000001000000190000009c
:103b1000ff00000000000000010000002000000085
:103b2000ff00000000000000000000002100000075
:103b3000ff00000000000000000000002600000060
:103b4000df0000000100000000000000370000005e
:103b50007300000000000000000000003a000000b8
:103b60002500000004000000000000003b000000f1
:103b700025000000000000000000000029000000f7
:103b8000ff0000000400000000000000170000001b
:103b9000ff00000000000000000000008a6000003c
:103ba000d0650000e86000000261000034610000a0
:103bb00062610000926100009e610000c46100002b
:103bc000a86100008a600000da650000e86000007b
:103bd0000261000034610000626100009261000037
:103be0009e610000c4610000a8610000303a00003e
:103bf00000480000454c00004c4f00002e540000cf
:103c00005854000000480000656c00006c6f000014
:103c1000205700006f7200006c640000210000005b
:103c200060000000000000000000000060000000d4
:103c30001300000000000000200100003f00000011
:103c4000000000004c6f0000676400006174000019
:103c5000656900002e540000585400000030000038
:103c60003a000000610000006200000063000000f4
:020000040000fa
:103c70000400fa00100798001e0090000000e80001
:103c8000104078000080fb00000f78001e007800d4
:103c9000c800dd001e009000104078000080fb008e
:103ca000008f70001e0078000080fa0000000600ff
:103cb0000600fa00200798002e00900063004000e4
:103cc000104078000080fb008000eb00008fbe00f9
:103cd0001e00be004809dd00c801de00830171003e
:103ce0004801dd002e0090000080e80010407800c0
:103cf0000080fb008000eb00001f71000197710045
:103d00001e00be004809dd00c801de00830171000d
:103d10004801dd002e0090000000e800104078000f
:103d20000080fb008000eb00001f71000197710014
:103d30001e00be004809dd00c801de0083017100dd
:103d40004801dd002e009000104078000080fb004c
:103d50008000eb00001f7100019771001e00be0083
:103d60000080fa00000006000400fa00000f78004e
:103d7000110798001e009000804078001e00780017
:103d8000014878001e0fe8001e0090004800de0089
:103d9000100798001e009000804078001e007800f8
:103da000014878001e0fe8000080fa0000000600bd
:103db0000600fa00000f7800120798002307980009
:103dc0001e009000804078001e00780001487800b6
:103dd0001e0fe8001e009000ae0090004809dd00b4
:103de0004800de0000007100c808de0010079800df
:103df000210798001e009000804078001e00780087
:103e0000014878001e0fe8001e009000ae009000f0
:103e10004809dd004800de0000007100c808de002f
:103e200010079800210798001e009000804078003d
:103e30001e007800014878001e0fe8001e00900068
:103e4000ae0090004809dd004800de00000071006f
:103e5000c808de0010079800210798001e00900097
:103e6000804078001e007800014878001e0fe800ae
:103e70000080fa00000006000a00fa0020079800ff
:103e80003107980042079800ae009000010f7800bb
:103e9000be009000110798004e0090000000e00066
:103ea0000e0032001e009000904078001e00780046
:103eb000014878001e0fe8001e0090000000e80096
:103ec000100798004e0090000000e900400798009d
:103ed0004e0090000000e000f2ff3a000080fa007f
:103ee000000006000800fa0010079800210798005b
:103ef000320798009e009000010f78002e0090007d
:103f0000804078001e007800014878001e0fe8000d
:103f10003e0090000000e900300798003e0090004d
:103f20000000e000f5ff3a000080fa000000060003
:103f30000c00fa00300798004107980052079800db
:103f4000be009000010f7800ce009000110798008d
:103f50000000eb00200798001e0078001040780059
:103f60008080fb001e009000104078000080fb0065
:103f700000805000200798001e0fe8001e009000ef
:103f80000000e800100798005e0090000000e900c3
:103f9000500798005e0090000000e000030032002f
:103fa0002e0090000000e000ebff32002e00900099
:103fb0000080fa00000006000400fa00000f7800fc
:103fc00011079800010037001e0fe8001e0078005e
:103fd000104078000004e000060032001e00780067
:103fe000104078008000fb001e009000808f500081
:103ff000f5ff3a001e007800104078000000fb003a
:104000000080fa00000006000200fa00004f78006d
:104010001e4078000004e000020032000000eb00c7
:10402000010037000000eb000080fa0000000600ed
:104030000200fa00004f78001e4078000004e00003
:10404000020032000000eb00010037000000eb002e
:104050000080fa00000006000c00fa0050079800eb
:104060005e009000100f78001e007800104078006d
:104070000080fb00100798001e0fe8001e00900053
:1040800000407800e0ff07000000e000110032006f
:104090001e00780010407800404798001e0fe8008e
:1040a0004e409000e2ff07000000e00003003a00ed
:1040b0000080eb008080eb001b0037001e009000aa
:1040c000c800dd004e4090000080fb0000804000f2
:1040d000100798001e0090000000e0000a00320067
:1040e000511b20001e009000651f0700100798005c
:1040f0001e0090000000e00003003a000080eb008a
:104100008080eb00080037001e0090008000eb006c
:1041100030079800410798005e0090001e08780064
:104120003e009000ce0090000080fa0000000600e3
:104130000a00fa001007980021079800320798003b
:1041400043079800521b20001e009000ae00900014
:10415000141f0700000f7800f00f20009e00780069
:10416000808f5000160036004e009000e10f500086
:1041700002003e000040eb00210037001e007800e6
:104180004800de00804078003e0090000148780042
:104190003e0090000000e800300798001e00780004
:1041a000804078003e009000014878003e0090007a
:1041b0000000e8003007980020c0b300100037006e
:1041c0001e0078000000e000030032004e00900066
:1041d0000000e00002003a000040eb000800370059
:1041e0001e007800804078003e0090000148780072
:1041f0003e0090000000e8003007980010c0b300b7
:104200000080fa00000006000400fa001007980081
:104210000000eb00000f78001e009000304090007e
:104220000004e000390032001e009000a018900049
:10423000101890001e019000660320000203430046
:104240001e01900092429000140020000001be0068
:1042500086007800054078003a2107000000e00061
:1042600028003a001e0090008040eb00314098008a
:104270001e00900010199000a01990001e009000e0
:10428000c010900030109000000151008181590051
:104290001e0090008010900070089000800f510068
:1042a000818f5900190031001e00900020409000bd
:1042b000e24f500015003a001e00900010199000c7
:1042c000a01990001e0090008010900070089000cf
:1042d00002004000838048001e0190006603200019
:1042e000020343001e01900092429000140020003f
:1042f0000001be008600780005407800112107000b
:104300000200370010002000000f78001e00780027
:104310000080fa00000006000800fa00100798006c
:1043200022079800330798000000eb00000f780088
:104330001e00900010199000a01990002e0090000f
:10434000be009000800f5100818f59001c00320088
:104350001e009000acff0700000f78001e007800e0
:104360000000e00016003a001e00900061032000eb
:10437000808040001e00900010409000140020003b
:104380002e019000be019000d12007000000e00047
:10439000060032000080eb008080eb0020079800d0
:1043a0003107980010002000000f78001e009000d8
:1043b0002e019000be01900012189800231898005a
:1043c0001e0078000080fa00000006000400fa00d9
:1043d000100798001e0090008bff0700000f780068
:1043e0001e0078000000e0004e003a001e00900021
:1043f00010407800e34f500041003a001e0090004a
:1044000040409000e14f50003d003a001e009000f7
:104410006003b000022020008000eb00b1fe070026
:104420001e0090004023b00051a52a004efe070058
:104430001e0090006003b000222525001316240002
:104440005bfe07001e009000a021b000222727007d
:104450001314260056fe07001e009000a0089000ce
:10446000100890001e019000e4212000020242008a
:104470000001be00040078004dfe07001e00900001
:1044800080089000700090001e01900024222000ff
:10449000020242000001be000400780044fe070052
:1044a0001e009000a01090001010900061004000cd
:1044b000e08048001e019000101998002119980012
:1044c0001e009000a0189000101890001e0190008f
:1044d00066032000020343001e01900092429000f8
:1044e000140020000001be0086007800054078001e
:1044f000942007001e0090008040eb00414098008f
:104500001e009000104090000001eb008040eb0086
:10451000a92007000000e000020032001000200087
:10452000000f78001e0078000080fa0000000600ee
:104530000600fa00000f7800120798002307980081
:104540001e009000ae00900062005000e080580015
:1045500010079800210798001e007800e0089000de
:104560005008900062015000e08158001e00900049
:10457000ae009000800f5100818f590002003e0074
:104580006000b800130037001e0078007012900021
:10459000801a90001e007800500090008000eb0010
:1045a0001e0190000191b90002017800ae01900057
:1045b000009bb90086017800030141009e01900034
:1045c0000018b8000101410082007800040040009a
:1045d000858048000080fa00000006001000fa0004
:1045e0005007980062079800730798005e009000db
:1045f00090007800210798006e019000fe01900065
:104600001000200001002000800f5100818f590010
:10461000080036002e00900050099000e00990003c
:104620006e009000fe009000800f5100818f5900b5
:1046300004003e001000200001002000008fbe009a
:10464000b10037000080eb008080eb00008fbe00df
:104650002e009000104078000080fb00e20f500018
:1046600057003200e30f500072003200e10f50009b
:104670009a003a006e029000340798003e009000c5
:104680000000d100be00900000804000300798007c
:104690002e00900030119000c01190003e0090005c
:1046a0004900de008000eb000200400083804800eb
:1046b0000001be002e00900017ff07000000e00080
:1046c0008a003a00be009000f01f200000806000c9
:1046d000ae0090006003b000614078000080fb00f5
:1046e000400798003e0090000000e8003007980066
:1046f0002e00900030119000c01190003e009000fc
:104700004900de008000eb0002004000838048008a
:104710000001be002e009000fffe07000000e00038
:1047200074003a00be009000f01f2000008060007e
:10473000ae0090006003b000614078000080fb0094
:104740004800dd00ce009000010070004007980096
:104750006e00900061006000004078000004e000fe
:10476000040032004e0090004400de006101b800f9
:10477000110037004e0090006101b800f0ff2000ea
:104780000100200002027800030178008001780017
:104790000100780003026200000061008000eb006d
:1047a000c000dd00000020000001be006120b80054
:1047b0000001710081817100028fbe00520037003c
:1047c0002e00900030119000c01190006e009000fb
:1047d000fe009000480add004800de000000720084
:1047e000c808de0002004000838048000001be00cf
:1047f0002e009000c8fe07000000e0003f003a00d5
:104800002e00900061032000808040006e00900028
:104810000000400000017800f01f2000000061004f
:104820000080400012fd07008000eb00008fbe00fa
:10483000350037002e00900030119000c01190001c
:104840006e009000fe009000490add004700de0087
:1048500000007200c708de000200400083804800ac
:104860000001be002e009000abfe07000000e0003b
:1048700024003a002e009000610320008080400058
:104880006e0090004201dd00f01f2000000061007a
:104890000080400006fd07000001be00f0ff2f0071
:1048a000f1ff200002027800830178000001780007
:1048b0000100780002016200008061008000eb00ce
:1048c000c000dd0000002000008fbe006110b800b5
:1048d0001e1f70001e9770000b0037001000200094
:1048e00001002000008fbe0007003700000000001c
:1048f0000500370000000000030037000000000042
:1049000001003700000000001e00be000080fa0019
:10491000000006001000fa00889fbe0030079800d3
:10492000420798005307980064079800750798009d
:1049300020002000000f78004e019000de01900062
:104940001000200001002000800f5100818f5900cd
:10495000f70036003e00900050099000e0099000fa
:104960004e009000de009000800f5100818f5900b2
:10497000ef0036003e009000104078000080fb0001
:10498000e20f500073003200e30f5000920032003b
:10499000e10f5000e6003a00ce00900011079800a9
:1049a0001e0090000000d1009e009000008040009a
:1049b000100798003e00900030119000c011900048
:1049c0001e0090004900de008000eb000200400065
:1049d000838048000001be003e0090004efe0700ac
:1049e000000f78001e0078000000e000c9003a00c7
:1049f0003e00900061032000808040001e01900076
:104a0000f01f200000006100008040002007980097
:104a10001e0090000000e800100798004e00900073
:104a200061006000004078000004e0000a003200ed
:104a30002e00900010407800ef4060006e00900063
:104a4000004078000080fb004400dd00004078005a
:104a500000c07000020037006e0090000040780037
:104a6000ae009000804878003e00900011c0b30076
:104a7000314098003e00900030119000c01190002d
:104a80001e0090004900de008000eb0002004000a4
:104a9000838048000001be003e0090001efe07001b
:104aa000000f78001e0078000000e0009b003a0034
:104ab0003e00900061032000808040001e019000b5
:104ac000f01f2000000061000080400020079800d7
:104ad0004e00900061006000004078000004e0009b
:104ae000080032006e009000fe0090004c09dd00ce
:104af0004400de0000007100c408de0000407800c1
:104b00000e0037002e0090001040780080407800a2
:104b100000cfb30000c160006e009000fe00900066
:104b2000c809dd004800de0000807100c808de0012
:104b3000004078006f40600000407100ae009000bf
:104b4000804878003e00900011c0b30031409800ca
:104b5000770037003e00900030119000c0119000a7
:104b60004e009000de009000480add004800de00a4
:104b700000007200c808de00020040008380480088
:104b80000001be003e009000e3fd0700000f78002a
:104b90001e0078000000e00062003a00ee00900085
:104ba0003e00900062032000000141004e00900092
:104bb0000000400080017800f01f200000806100ac
:104bc0000000410068fc07003e00900011c0b300e7
:104bd00031409800560037003e00900030119000a0
:104be000c01190004e009000de009000490add00e8
:104bf0004700de0000007200c708de00020040002f
:104c0000838048000001be003e009000c2fd070006
:104c1000000f78001e0078000000e00043003a001a
:104c20006e019000fe019000f0ff2f00f1ff2000c8
:104c3000020278008301780000017800010078000a
:104c400002016200008061008000eb00c000dd0016
:104c5000000020000004be006110b80000047400d1
:104c6000818474003e009000610320008080400039
:104c70004e0090004201dd00f01f200000006100a6
:104c8000008040000afc07000001be000000200078
:104c900001002f00020278000301780080017800f3
:104ca0000100780003026200000061008000eb0058
:104cb000c000dd00000020000001be006120b8003f
:104cc0000001710081817100020074008380740012
:104cd00060079800710798003e0090006103200073
:104ce000808040004e0090004201dd00f01f200057
:104cf00000006100008040006e019000fe01900005
:104d00002bfc07003e00900011c0b300314098001a
:104d10000700370000000000050037000000000019
:104d20000300370000000000010037000000000011
:104d30001e0078004f04be000080fa00000006004c
:104d40001200fa0040079800520798006307980085
:104d500074079800050f98000000eb00000f780022
:104d60004e00900090007800110798005e019000be
:104d7000ee0190001000200001002000800f510083
:104d8000818f5900080036001e00900050099000e5
:104d9000e00990005e009000ee009000800f51004e
:104da000818f590002003e00200020006100370082
:104db0007e0090008e089000e00f5000e08f5800b9
:104dc0000c0032000082eb008082eb007e0190003c
:104dd0008e0990001e009000cefe0700000f7800a4
:104de0001e0078000000e000020032001e00780083
:104df000500037005e019000ee0190004e009000e0
:104e0000f6fd070020079800310798002e0090005b
:104e1000be009000e00f5000e08f580043003200c9
:104e20002e019000be019000100020000100200023
:104e3000800f5100818f590002003a0020002000ad
:104e40003c0037002e019000be0190000080eb0076
:104e50008080eb00800f5100818f590002003a00e2
:104e600010002000330037006022b8005e0190007f
:104e7000ee0190001e009000a6fe0700000f7800d3
:104e80001e0078000000e000020032001e007800e2
:104e9000280037001e00900010099000a009900023
:104ea0001e009000e0089000500890006200500042
:104eb000e0805800800f5100818f59000e003100b2
:104ec0001e009000a00890001008900061004000b3
:104ed000e08048001e019000100998002109980008
:104ee0001e00900040409000804078000104a00027
:104ef0001e009000414098002e019000be019000dd
:104f000052079800630798001e0090005009900017
:104f1000e00990005e009000ee009000800f5100cc
:104f2000818f5900b3ff3e000100370000000000f0
:104f30000000eb000080fa00000006001600fa00f6
:104f4000000f9800120f9800230f98000e08900091
:104f500090007800510798001e089000ae0890005d
:104f6000e00f5000e08f580017003a005e009000fc
:104f70007001900080099000220798003307980084
:104f80002e009000be009000e00f5000e08f58000f
:104f9000080032005e00900050099000e009900087
:104fa0002e009000be009000800f5100818f5900ac
:104fb0002e003e0010002000010020002007980075
:104fc00031079800290037001e099000ae099000b3
:104fd0000e08900081fd0700600798007107980097
:104fe0006e019000fe0190001000200001002000e2
:104ff000800f5100818f590003003e0010002000f7
:1050000001002000ef0037006e019000fe019000cb
:105010000080eb008080eb00800f5100818f5900f1
:1050200003003a006e009000fe009000e50037009b
:105030005e00900050099000e00990006e00900022
:10504000fe009000800f5100818f59000300360050
:105050006e009000fe009000da0037001e099000fc
:10506000ae09900022079800330798005e00900078
:10507000a008900010089000e00f5000e08f58004a
:1050800002003a006000b800ce0037006000b800af
:10509000008fbe002e019000be0190001e089000ff
:1050a000ae089000800f5100818f590044003a00f3
:1050b0002e009000be00900012002000030020008f
:1050c000021f4000039748005e009000e008900037
:1050d00050089000be0f5000ae8f580003003e00f5
:1050e0002000200001002000008fbe001e01be0035
:1050f0000e08900039fd07006007980071079800be
:105100006e019000fe0190001000200001002000c0
:10511000800f5100818f5900070032006e0190000e
:10512000fe0190000080eb008080eb00800f5100ba
:10513000818f590003003a006e009000fe0090003d
:10514000a00037006e009000fe009000e00f5000bd
:10515000e08f58001a0032005e009000700190004d
:105160008009900062079800730798006e01900014
:10517000fe0190001000200001002000800f51006f
:10518000818f59000c0036005e009000500990009d
:10519000e00990006e009000fe009000800f51002a
:1051a000818f5900040036006e019000fe019000ce
:1051b00022079800330798006000b800008fbe00f7
:1051c0001e00be00e00f5000e08f58003e003a0085
:1051d0002e019000be019000028fbe00010037003a
